{
  "_format": "hh-sol-artifact-1",
  "contractName": "Ticketing",
  "sourceName": "contracts/Ticketing.sol",
  "abi": [
    {
      "inputs": [
        {
          "internalType": "address",
          "name": "initialOwner",
          "type": "address"
        }
      ],
      "stateMutability": "nonpayable",
      "type": "constructor"
    },
    {
      "anonymous": false,
      "inputs": [
        {
          "indexed": true,
          "internalType": "address",
          "name": "owner",
          "type": "address"
        },
        {
          "indexed": true,
          "internalType": "address",
          "name": "approved",
          "type": "address"
        },
        {
          "indexed": true,
          "internalType": "uint256",
          "name": "tokenId",
          "type": "uint256"
        }
      ],
      "name": "Approval",
      "type": "event"
    },
    {
      "anonymous": false,
      "inputs": [
        {
          "indexed": true,
          "internalType": "address",
          "name": "owner",
          "type": "address"
        },
        {
          "indexed": true,
          "internalType": "address",
          "name": "operator",
          "type": "address"
        },
        {
          "indexed": false,
          "internalType": "bool",
          "name": "approved",
          "type": "bool"
        }
      ],
      "name": "ApprovalForAll",
      "type": "event"
    },
    {
      "anonymous": false,
      "inputs": [
        {
          "indexed": false,
          "internalType": "uint256",
          "name": "_fromTokenId",
          "type": "uint256"
        },
        {
          "indexed": false,
          "internalType": "uint256",
          "name": "_toTokenId",
          "type": "uint256"
        }
      ],
      "name": "BatchMetadataUpdate",
      "type": "event"
    },
    {
      "anonymous": false,
      "inputs": [
        {
          "indexed": true,
          "internalType": "uint256",
          "name": "eventId",
          "type": "uint256"
        }
      ],
      "name": "EventCancelled",
      "type": "event"
    },
    {
      "anonymous": false,
      "inputs": [
        {
          "indexed": true,
          "internalType": "uint256",
          "name": "eventId",
          "type": "uint256"
        },
        {
          "indexed": false,
          "internalType": "string",
          "name": "name",
          "type": "string"
        },
        {
          "indexed": false,
          "internalType": "uint256",
          "name": "price",
          "type": "uint256"
        },
        {
          "indexed": false,
          "internalType": "uint256",
          "name": "totalTickets",
          "type": "uint256"
        },
        {
          "indexed": false,
          "internalType": "address",
          "name": "organizer",
          "type": "address"
        }
      ],
      "name": "EventCreated",
      "type": "event"
    },
    {
      "anonymous": false,
      "inputs": [
        {
          "indexed": true,
          "internalType": "address",
          "name": "to",
          "type": "address"
        },
        {
          "indexed": false,
          "internalType": "uint256",
          "name": "amount",
          "type": "uint256"
        }
      ],
      "name": "FundsWithdrawn",
      "type": "event"
    },
    {
      "anonymous": false,
      "inputs": [
        {
          "indexed": false,
          "internalType": "uint256",
          "name": "_tokenId",
          "type": "uint256"
        }
      ],
      "name": "MetadataUpdate",
      "type": "event"
    },
    {
      "anonymous": false,
      "inputs": [
        {
          "indexed": true,
          "internalType": "address",
          "name": "to",
          "type": "address"
        },
        {
          "indexed": false,
          "internalType": "uint256",
          "name": "amount",
          "type": "uint256"
        }
      ],
      "name": "RefundIssued",
      "type": "event"
    },
    {
      "anonymous": false,
      "inputs": [
        {
          "indexed": true,
          "internalType": "uint256",
          "name": "ticketId",
          "type": "uint256"
        },
        {
          "indexed": false,
          "internalType": "uint256",
          "name": "price",
          "type": "uint256"
        }
      ],
      "name": "ResaleListed",
      "type": "event"
    },
    {
      "anonymous": false,
      "inputs": [
        {
          "indexed": true,
          "internalType": "uint256",
          "name": "ticketId",
          "type": "uint256"
        },
        {
          "indexed": false,
          "internalType": "address",
          "name": "from",
          "type": "address"
        },
        {
          "indexed": false,
          "internalType": "address",
          "name": "to",
          "type": "address"
        },
        {
          "indexed": false,
          "internalType": "uint256",
          "name": "price",
          "type": "uint256"
        }
      ],
      "name": "ResaleSold",
      "type": "event"
    },
    {
      "anonymous": false,
      "inputs": [
        {
          "indexed": true,
          "internalType": "bytes32",
          "name": "role",
          "type": "bytes32"
        },
        {
          "indexed": true,
          "internalType": "bytes32",
          "name": "previousAdminRole",
          "type": "bytes32"
        },
        {
          "indexed": true,
          "internalType": "bytes32",
          "name": "newAdminRole",
          "type": "bytes32"
        }
      ],
      "name": "RoleAdminChanged",
      "type": "event"
    },
    {
      "anonymous": false,
      "inputs": [
        {
          "indexed": true,
          "internalType": "bytes32",
          "name": "role",
          "type": "bytes32"
        },
        {
          "indexed": true,
          "internalType": "address",
          "name": "account",
          "type": "address"
        },
        {
          "indexed": true,
          "internalType": "address",
          "name": "sender",
          "type": "address"
        }
      ],
      "name": "RoleGranted",
      "type": "event"
    },
    {
      "anonymous": false,
      "inputs": [
        {
          "indexed": true,
          "internalType": "bytes32",
          "name": "role",
          "type": "bytes32"
        },
        {
          "indexed": true,
          "internalType": "address",
          "name": "account",
          "type": "address"
        },
        {
          "indexed": true,
          "internalType": "address",
          "name": "sender",
          "type": "address"
        }
      ],
      "name": "RoleRevoked",
      "type": "event"
    },
    {
      "anonymous": false,
      "inputs": [
        {
          "indexed": true,
          "internalType": "uint256",
          "name": "ticketId",
          "type": "uint256"
        },
        {
          "indexed": true,
          "internalType": "uint256",
          "name": "eventId",
          "type": "uint256"
        },
        {
          "indexed": true,
          "internalType": "address",
          "name": "buyer",
          "type": "address"
        }
      ],
      "name": "TicketPurchased",
      "type": "event"
    },
    {
      "anonymous": false,
      "inputs": [
        {
          "indexed": true,
          "internalType": "uint256",
          "name": "ticketId",
          "type": "uint256"
        },
        {
          "indexed": false,
          "internalType": "address",
          "name": "from",
          "type": "address"
        },
        {
          "indexed": false,
          "internalType": "address",
          "name": "to",
          "type": "address"
        }
      ],
      "name": "TicketTransferred",
      "type": "event"
    },
    {
      "anonymous": false,
      "inputs": [
        {
          "indexed": true,
          "internalType": "uint256",
          "name": "ticketId",
          "type": "uint256"
        }
      ],
      "name": "TicketUsed",
      "type": "event"
    },
    {
      "anonymous": false,
      "inputs": [
        {
          "indexed": true,
          "internalType": "uint256",
          "name": "ticketId",
          "type": "uint256"
        }
      ],
      "name": "TicketVerified",
      "type": "event"
    },
    {
      "anonymous": false,
      "inputs": [
        {
          "indexed": true,
          "internalType": "address",
          "name": "from",
          "type": "address"
        },
        {
          "indexed": true,
          "internalType": "address",
          "name": "to",
          "type": "address"
        },
        {
          "indexed": true,
          "internalType": "uint256",
          "name": "tokenId",
          "type": "uint256"
        }
      ],
      "name": "Transfer",
      "type": "event"
    },
    {
      "inputs": [],
      "name": "ADMIN_ROLE",
      "outputs": [
        {
          "internalType": "bytes32",
          "name": "",
          "type": "bytes32"
        }
      ],
      "stateMutability": "view",
      "type": "function"
    },
    {
      "inputs": [],
      "name": "DEFAULT_ADMIN_ROLE",
      "outputs": [
        {
          "internalType": "bytes32",
          "name": "",
          "type": "bytes32"
        }
      ],
      "stateMutability": "view",
      "type": "function"
    },
    {
      "inputs": [],
      "name": "ORGANIZER_ROLE",
      "outputs": [
        {
          "internalType": "bytes32",
          "name": "",
          "type": "bytes32"
        }
      ],
      "stateMutability": "view",
      "type": "function"
    },
    {
      "inputs": [
        {
          "internalType": "address",
          "name": "to",
          "type": "address"
        },
        {
          "internalType": "uint256",
          "name": "tokenId",
          "type": "uint256"
        }
      ],
      "name": "approve",
      "outputs": [],
      "stateMutability": "nonpayable",
      "type": "function"
    },
    {
      "inputs": [
        {
          "internalType": "address",
          "name": "owner",
          "type": "address"
        }
      ],
      "name": "balanceOf",
      "outputs": [
        {
          "internalType": "uint256",
          "name": "",
          "type": "uint256"
        }
      ],
      "stateMutability": "view",
      "type": "function"
    },
    {
      "inputs": [
        {
          "internalType": "uint256",
          "name": "_ticketId",
          "type": "uint256"
        }
      ],
      "name": "buyResale",
      "outputs": [],
      "stateMutability": "payable",
      "type": "function"
    },
    {
      "inputs": [
        {
          "internalType": "uint256",
          "name": "_eventId",
          "type": "uint256"
        }
      ],
      "name": "buyTicket",
      "outputs": [],
      "stateMutability": "payable",
      "type": "function"
    },
    {
      "inputs": [
        {
          "internalType": "uint256",
          "name": "_eventId",
          "type": "uint256"
        }
      ],
      "name": "cancelEvent",
      "outputs": [],
      "stateMutability": "nonpayable",
      "type": "function"
    },
    {
      "inputs": [
        {
          "internalType": "uint256",
          "name": "_ticketId",
          "type": "uint256"
        }
      ],
      "name": "claimRefund",
      "outputs": [],
      "stateMutability": "nonpayable",
      "type": "function"
    },
    {
      "inputs": [
        {
          "internalType": "string",
          "name": "_name",
          "type": "string"
        },
        {
          "internalType": "uint256",
          "name": "_price",
          "type": "uint256"
        },
        {
          "internalType": "uint256",
          "name": "_totalTickets",
          "type": "uint256"
        },
        {
          "internalType": "uint256",
          "name": "_startTime",
          "type": "uint256"
        }
      ],
      "name": "createEvent",
      "outputs": [],
      "stateMutability": "nonpayable",
      "type": "function"
    },
    {
      "inputs": [
        {
          "internalType": "uint256",
          "name": "_ticketId",
          "type": "uint256"
        }
      ],
      "name": "delistResale",
      "outputs": [],
      "stateMutability": "nonpayable",
      "type": "function"
    },
    {
      "inputs": [
        {
          "internalType": "uint256",
          "name": "",
          "type": "uint256"
        }
      ],
      "name": "events",
      "outputs": [
        {
          "internalType": "string",
          "name": "name",
          "type": "string"
        },
        {
          "internalType": "uint256",
          "name": "price",
          "type": "uint256"
        },
        {
          "internalType": "uint256",
          "name": "totalTickets",
          "type": "uint256"
        },
        {
          "internalType": "uint256",
          "name": "sold",
          "type": "uint256"
        },
        {
          "internalType": "uint256",
          "name": "startTime",
          "type": "uint256"
        },
        {
          "internalType": "address",
          "name": "organizer",
          "type": "address"
        },
        {
          "internalType": "bool",
          "name": "cancelled",
          "type": "bool"
        },
        {
          "internalType": "string",
          "name": "MetaURL",
          "type": "string"
        }
      ],
      "stateMutability": "view",
      "type": "function"
    },
    {
      "inputs": [
        {
          "internalType": "uint256",
          "name": "tokenId",
          "type": "uint256"
        }
      ],
      "name": "getApproved",
      "outputs": [
        {
          "internalType": "address",
          "name": "",
          "type": "address"
        }
      ],
      "stateMutability": "view",
      "type": "function"
    },
    {
      "inputs": [
        {
          "internalType": "bytes32",
          "name": "role",
          "type": "bytes32"
        }
      ],
      "name": "getRoleAdmin",
      "outputs": [
        {
          "internalType": "bytes32",
          "name": "",
          "type": "bytes32"
        }
      ],
      "stateMutability": "view",
      "type": "function"
    },
    {
      "inputs": [
        {
          "internalType": "address",
          "name": "account",
          "type": "address"
        }
      ],
      "name": "grantAdminRole",
      "outputs": [],
      "stateMutability": "nonpayable",
      "type": "function"
    },
    {
      "inputs": [
        {
          "internalType": "address",
          "name": "account",
          "type": "address"
        }
      ],
      "name": "grantOrganizerRole",
      "outputs": [],
      "stateMutability": "nonpayable",
      "type": "function"
    },
    {
      "inputs": [
        {
          "internalType": "bytes32",
          "name": "role",
          "type": "bytes32"
        },
        {
          "internalType": "address",
          "name": "account",
          "type": "address"
        }
      ],
      "name": "grantRole",
      "outputs": [],
      "stateMutability": "nonpayable",
      "type": "function"
    },
    {
      "inputs": [
        {
          "internalType": "bytes32",
          "name": "role",
          "type": "bytes32"
        },
        {
          "internalType": "address",
          "name": "account",
          "type": "address"
        }
      ],
      "name": "hasRole",
      "outputs": [
        {
          "internalType": "bool",
          "name": "",
          "type": "bool"
        }
      ],
      "stateMutability": "view",
      "type": "function"
    },
    {
      "inputs": [
        {
          "internalType": "address",
          "name": "owner",
          "type": "address"
        },
        {
          "internalType": "address",
          "name": "operator",
          "type": "address"
        }
      ],
      "name": "isApprovedForAll",
      "outputs": [
        {
          "internalType": "bool",
          "name": "",
          "type": "bool"
        }
      ],
      "stateMutability": "view",
      "type": "function"
    },
    {
      "inputs": [
        {
          "internalType": "uint256",
          "name": "_ticketId",
          "type": "uint256"
        },
        {
          "internalType": "uint256",
          "name": "_price",
          "type": "uint256"
        }
      ],
      "name": "listForResale",
      "outputs": [],
      "stateMutability": "nonpayable",
      "type": "function"
    },
    {
      "inputs": [],
      "name": "name",
      "outputs": [
        {
          "internalType": "string",
          "name": "",
          "type": "string"
        }
      ],
      "stateMutability": "view",
      "type": "function"
    },
    {
      "inputs": [],
      "name": "nextEventId",
      "outputs": [
        {
          "internalType": "uint256",
          "name": "",
          "type": "uint256"
        }
      ],
      "stateMutability": "view",
      "type": "function"
    },
    {
      "inputs": [],
      "name": "nextTicketId",
      "outputs": [
        {
          "internalType": "uint256",
          "name": "",
          "type": "uint256"
        }
      ],
      "stateMutability": "view",
      "type": "function"
    },
    {
      "inputs": [
        {
          "internalType": "uint256",
          "name": "tokenId",
          "type": "uint256"
        }
      ],
      "name": "ownerOf",
      "outputs": [
        {
          "internalType": "address",
          "name": "",
          "type": "address"
        }
      ],
      "stateMutability": "view",
      "type": "function"
    },
    {
      "inputs": [
        {
          "internalType": "uint256",
          "name": "_eventId",
          "type": "uint256"
        }
      ],
      "name": "remainingTickets",
      "outputs": [
        {
          "internalType": "uint256",
          "name": "",
          "type": "uint256"
        }
      ],
      "stateMutability": "view",
      "type": "function"
    },
    {
      "inputs": [
        {
          "internalType": "bytes32",
          "name": "role",
          "type": "bytes32"
        },
        {
          "internalType": "address",
          "name": "account",
          "type": "address"
        }
      ],
      "name": "renounceRole",
      "outputs": [],
      "stateMutability": "nonpayable",
      "type": "function"
    },
    {
      "inputs": [
        {
          "internalType": "address",
          "name": "account",
          "type": "address"
        }
      ],
      "name": "revokeAdminRole",
      "outputs": [],
      "stateMutability": "nonpayable",
      "type": "function"
    },
    {
      "inputs": [
        {
          "internalType": "address",
          "name": "account",
          "type": "address"
        }
      ],
      "name": "revokeOrganizerRole",
      "outputs": [],
      "stateMutability": "nonpayable",
      "type": "function"
    },
    {
      "inputs": [
        {
          "internalType": "bytes32",
          "name": "role",
          "type": "bytes32"
        },
        {
          "internalType": "address",
          "name": "account",
          "type": "address"
        }
      ],
      "name": "revokeRole",
      "outputs": [],
      "stateMutability": "nonpayable",
      "type": "function"
    },
    {
      "inputs": [
        {
          "internalType": "address",
          "name": "from",
          "type": "address"
        },
        {
          "internalType": "address",
          "name": "to",
          "type": "address"
        },
        {
          "internalType": "uint256",
          "name": "tokenId",
          "type": "uint256"
        }
      ],
      "name": "safeTransferFrom",
      "outputs": [],
      "stateMutability": "nonpayable",
      "type": "function"
    },
    {
      "inputs": [
        {
          "internalType": "address",
          "name": "from",
          "type": "address"
        },
        {
          "internalType": "address",
          "name": "to",
          "type": "address"
        },
        {
          "internalType": "uint256",
          "name": "tokenId",
          "type": "uint256"
        },
        {
          "internalType": "bytes",
          "name": "data",
          "type": "bytes"
        }
      ],
      "name": "safeTransferFrom",
      "outputs": [],
      "stateMutability": "nonpayable",
      "type": "function"
    },
    {
      "inputs": [
        {
          "internalType": "address",
          "name": "operator",
          "type": "address"
        },
        {
          "internalType": "bool",
          "name": "approved",
          "type": "bool"
        }
      ],
      "name": "setApprovalForAll",
      "outputs": [],
      "stateMutability": "nonpayable",
      "type": "function"
    },
    {
      "inputs": [
        {
          "internalType": "bytes4",
          "name": "interfaceId",
          "type": "bytes4"
        }
      ],
      "name": "supportsInterface",
      "outputs": [
        {
          "internalType": "bool",
          "name": "",
          "type": "bool"
        }
      ],
      "stateMutability": "view",
      "type": "function"
    },
    {
      "inputs": [],
      "name": "symbol",
      "outputs": [
        {
          "internalType": "string",
          "name": "",
          "type": "string"
        }
      ],
      "stateMutability": "view",
      "type": "function"
    },
    {
      "inputs": [
        {
          "internalType": "uint256",
          "name": "",
          "type": "uint256"
        }
      ],
      "name": "tickets",
      "outputs": [
        {
          "internalType": "uint256",
          "name": "eventId",
          "type": "uint256"
        },
        {
          "internalType": "bool",
          "name": "used",
          "type": "bool"
        },
        {
          "internalType": "uint256",
          "name": "resalePrice",
          "type": "uint256"
        }
      ],
      "stateMutability": "view",
      "type": "function"
    },
    {
      "inputs": [
        {
          "internalType": "uint256",
          "name": "tokenId",
          "type": "uint256"
        }
      ],
      "name": "tokenURI",
      "outputs": [
        {
          "internalType": "string",
          "name": "",
          "type": "string"
        }
      ],
      "stateMutability": "view",
      "type": "function"
    },
    {
      "inputs": [
        {
          "internalType": "address",
          "name": "from",
          "type": "address"
        },
        {
          "internalType": "address",
          "name": "to",
          "type": "address"
        },
        {
          "internalType": "uint256",
          "name": "tokenId",
          "type": "uint256"
        }
      ],
      "name": "transferFrom",
      "outputs": [],
      "stateMutability": "nonpayable",
      "type": "function"
    },
    {
      "inputs": [
        {
          "internalType": "uint256",
          "name": "_ticketId",
          "type": "uint256"
        },
        {
          "internalType": "address",
          "name": "_to",
          "type": "address"
        }
      ],
      "name": "transferTicket",
      "outputs": [],
      "stateMutability": "nonpayable",
      "type": "function"
    },
    {
      "inputs": [
        {
          "internalType": "uint256",
          "name": "_ticketId",
          "type": "uint256"
        }
      ],
      "name": "useTicket",
      "outputs": [],
      "stateMutability": "nonpayable",
      "type": "function"
    },
    {
      "inputs": [
        {
          "internalType": "uint256",
          "name": "_ticketId",
          "type": "uint256"
        }
      ],
      "name": "verifyTicket",
      "outputs": [],
      "stateMutability": "nonpayable",
      "type": "function"
    },
    {
      "inputs": [],
      "name": "withdrawFunds",
      "outputs": [],
      "stateMutability": "nonpayable",
      "type": "function"
    },
    {
      "inputs": [
        {
          "internalType": "address",
          "name": "",
          "type": "address"
        }
      ],
      "name": "withdrawableFunds",
      "outputs": [
        {
          "internalType": "uint256",
          "name": "",
          "type": "uint256"
        }
      ],
      "stateMutability": "view",
      "type": "function"
    }
  ],
  "bytecode": "0x60806040523480156200001157600080fd5b50604051620039ef380380620039ef8339810160408190526200003491620001b2565b6040518060400160405280600d81526020016c151a58dad95d1a5b99c8139195609a1b81525060405180604001604052806006815260200165151250d2d15560d21b81525081600090816200008a919062000289565b50600162000099828262000289565b5050600160085550620000ae6000826200010d565b620000da7fa49807205ce4d355092ef5a8a18f56e8913cf4a201fbe287825b095693c21775826200010d565b620001067f4d2e7a1e3f5dd6e203f087b15756ccf0e4ccd947fe1b639a38540089a1e47f63826200010d565b5062000355565b60008281526007602090815260408083206001600160a01b038516845290915290205460ff16620001ae5760008281526007602090815260408083206001600160a01b03851684529091529020805460ff191660011790556200016d3390565b6001600160a01b0316816001600160a01b0316837f2f8788117e7eff1d82e926ec794901d17c78024a50270940304540a733656f0d60405160405180910390a45b5050565b600060208284031215620001c557600080fd5b81516001600160a01b0381168114620001dd57600080fd5b9392505050565b634e487b7160e01b600052604160045260246000fd5b600181811c908216806200020f57607f821691505b6020821081036200023057634e487b7160e01b600052602260045260246000fd5b50919050565b601f8211156200028457600081815260208120601f850160051c810160208610156200025f5750805b601f850160051c820191505b8181101562000280578281556001016200026b565b5050505b505050565b81516001600160401b03811115620002a557620002a5620001e4565b620002bd81620002b68454620001fa565b8462000236565b602080601f831160018114620002f55760008415620002dc5750858301515b600019600386901b1c1916600185901b17855562000280565b600085815260208120601f198616915b82811015620003265788860151825594840194600190910190840162000305565b5085821015620003455787850151600019600388901b60f8161c191681555b5050505050600190811b01905550565b61368a80620003656000396000f3fe6080604052600436106102515760003560e01c80635b7baf64116101395780639a19c7b0116100b6578063b88d4fde1161007a578063b88d4fde14610735578063c634b78e14610755578063c87b56dd14610775578063d547741f14610795578063e985e9c5146107b5578063f8a90f55146107fe57600080fd5b80639a19c7b0146106b75780639f9d903a146106d7578063a217fddf146106ed578063a22cb46514610702578063b54baacf1461072257600080fd5b806370a08231116100fd57806370a082311461061e57806375b238fc1461063e5780637909cb591461066057806391d148541461068257806395d89b41146106a257600080fd5b80635b7baf64146105955780636031a52f146105b55780636352211e146105cb578063679ebf1a146105eb57806367dd74ca1461060b57600080fd5b8063248a9ca3116101d257806336568abe1161019657806336568abe1461049b5780633f69babd146104bb57806342842e0e146104db57806350b44712146104fb578063543cb81f146105555780635490aa3f1461057557600080fd5b8063248a9ca3146103de578063266064481461040e5780632f2ff15d1461042e5780632f30cabd1461044e5780633240d45b1461047b57600080fd5b80630b791430116102195780630b791430146103275780631d1012f01461035b5780631f7d863c1461038957806323b872dd146103a957806324600fc3146103c957600080fd5b806301ffc9a7146102565780630374ab0b1461028b57806306fdde03146102ad578063081812fc146102cf578063095ea7b314610307575b600080fd5b34801561026257600080fd5b50610276610271366004612dc6565b61081e565b60405190151581526020015b60405180910390f35b34801561029757600080fd5b506102ab6102a6366004612e6f565b61082f565b005b3480156102b957600080fd5b506102c2610ad2565b6040516102829190612f27565b3480156102db57600080fd5b506102ef6102ea366004612f3a565b610b64565b6040516001600160a01b039091168152602001610282565b34801561031357600080fd5b506102ab610322366004612f6f565b610b8b565b34801561033357600080fd5b50610347610342366004612f3a565b610ca0565b604051610282989796959493929190612f99565b34801561036757600080fd5b5061037b610376366004612f3a565b610e07565b604051908152602001610282565b34801561039557600080fd5b506102ab6103a4366004612ffe565b610e2a565b3480156103b557600080fd5b506102ab6103c4366004613020565b610fb9565b3480156103d557600080fd5b506102ab610fea565b3480156103ea57600080fd5b5061037b6103f9366004612f3a565b60009081526007602052604090206001015490565b34801561041a57600080fd5b506102ab610429366004612f3a565b611122565b34801561043a57600080fd5b506102ab61044936600461305c565b6111ff565b34801561045a57600080fd5b5061037b610469366004613088565b600d6020526000908152604090205481565b34801561048757600080fd5b506102ab610496366004613088565b611224565b3480156104a757600080fd5b506102ab6104b636600461305c565b611266565b3480156104c757600080fd5b506102ab6104d6366004612f3a565b6112e4565b3480156104e757600080fd5b506102ab6104f6366004613020565b6113f1565b34801561050757600080fd5b5061053a610516366004612f3a565b600c60205260009081526040902080546001820154600290920154909160ff169083565b60408051938452911515602084015290820152606001610282565b34801561056157600080fd5b506102ab610570366004612f3a565b61140c565b34801561058157600080fd5b506102ab610590366004613088565b6114f8565b3480156105a157600080fd5b506102ab6105b0366004612f3a565b611537565b3480156105c157600080fd5b5061037b600a5481565b3480156105d757600080fd5b506102ef6105e6366004612f3a565b611768565b3480156105f757600080fd5b506102ab61060636600461305c565b6117c8565b6102ab610619366004612f3a565b6118cf565b34801561062a57600080fd5b5061037b610639366004613088565b611b1b565b34801561064a57600080fd5b5061037b60008051602061363583398151915281565b34801561066c57600080fd5b5061037b60008051602061361583398151915281565b34801561068e57600080fd5b5061027661069d36600461305c565b611ba1565b3480156106ae57600080fd5b506102c2611bcc565b3480156106c357600080fd5b506102ab6106d2366004613088565b611bdb565b3480156106e357600080fd5b5061037b60095481565b3480156106f957600080fd5b5061037b600081565b34801561070e57600080fd5b506102ab61071d3660046130a3565b611c1a565b6102ab610730366004612f3a565b611c25565b34801561074157600080fd5b506102ab6107503660046130df565b611e84565b34801561076157600080fd5b506102ab610770366004613088565b611ebc565b34801561078157600080fd5b506102c2610790366004612f3a565b611efb565b3480156107a157600080fd5b506102ab6107b036600461305c565b611f06565b3480156107c157600080fd5b506102766107d036600461315b565b6001600160a01b03918216600090815260056020908152604080832093909416825291909152205460ff1690565b34801561080a57600080fd5b506102ab610819366004612f3a565b611f2b565b600061082982611f6f565b92915050565b60008051602061361583398151915261084781611f94565b600085511161089d5760405162461bcd60e51b815260206004820152601a60248201527f4576656e74206e616d652063616e6e6f7420626520656d70747900000000000060448201526064015b60405180910390fd5b600084116108ed5760405162461bcd60e51b815260206004820152601c60248201527f5072696365206d7573742062652067726561746572207468616e2030000000006044820152606401610894565b600083116109495760405162461bcd60e51b8152602060048201526024808201527f546f74616c207469636b657473206d75737420626520677265617465722074686044820152630616e20360e41b6064820152608401610894565b4282116109985760405162461bcd60e51b815260206004820152601760248201527f5374617274206d75737420626520696e206675747572650000000000000000006044820152606401610894565b60408051610100810182528681526020808201879052818301869052600060608301819052608083018690523360a084015260c083018190528351808301855281815260e08401526009548152600b90915291909120815181906109fc908261320d565b506020820151600182015560408201516002820155606082015160038201556080820151600482015560a082015160058201805460c08501511515600160a01b026001600160a81b03199091166001600160a01b039093169290921791909117905560e08201516006820190610a72908261320d565b509050506009547f818cdd1d6860d493731be2106680d34811f56c9ed9d66dbf56a7c2dcc59c9be586868633604051610aae94939291906132cd565b60405180910390a260098054906000610ac68361331b565b91905055505050505050565b606060008054610ae190613185565b80601f0160208091040260200160405190810160405280929190818152602001828054610b0d90613185565b8015610b5a5780601f10610b2f57610100808354040283529160200191610b5a565b820191906000526020600020905b815481529060010190602001808311610b3d57829003601f168201915b5050505050905090565b6000610b6f82611f9e565b506000908152600460205260409020546001600160a01b031690565b6000610b9682611768565b9050806001600160a01b0316836001600160a01b031603610c035760405162461bcd60e51b815260206004820152602160248201527f4552433732313a20617070726f76616c20746f2063757272656e74206f776e656044820152603960f91b6064820152608401610894565b336001600160a01b0382161480610c1f5750610c1f81336107d0565b610c915760405162461bcd60e51b815260206004820152603d60248201527f4552433732313a20617070726f76652063616c6c6572206973206e6f7420746f60448201527f6b656e206f776e6572206f7220617070726f76656420666f7220616c6c0000006064820152608401610894565b610c9b8383611ffd565b505050565b600b60205260009081526040902080548190610cbb90613185565b80601f0160208091040260200160405190810160405280929190818152602001828054610ce790613185565b8015610d345780601f10610d0957610100808354040283529160200191610d34565b820191906000526020600020905b815481529060010190602001808311610d1757829003601f168201915b505050506001830154600284015460038501546004860154600587015460068801805497989597949650929491936001600160a01b03821693600160a01b90920460ff16929190610d8490613185565b80601f0160208091040260200160405190810160405280929190818152602001828054610db090613185565b8015610dfd5780601f10610dd257610100808354040283529160200191610dfd565b820191906000526020600020905b815481529060010190602001808311610de057829003601f168201915b5050505050905088565b6000818152600b6020526040812060038101546002909101546108299190613334565b6000828152600c6020908152604080832080548452600b90925290912033610e5185611768565b6001600160a01b031614610e775760405162461bcd60e51b815260040161089490613347565b600182015460ff1615610e9c5760405162461bcd60e51b81526004016108949061336a565b6005810154600160a01b900460ff1615610ec85760405162461bcd60e51b815260040161089490613390565b80600401544210610f135760405162461bcd60e51b8152602060048201526015602482015274115d995b9d08185b1c9958591e481cdd185c9d1959605a1b6044820152606401610894565b600083118015610f3f5750606481600101546078610f3191906133b9565b610f3b91906133d0565b8311155b610f775760405162461bcd60e51b815260206004820152600960248201526842616420707269636560b81b6044820152606401610894565b6002820183905560405183815284907f7bf235d9906cf860d368de2a3155baf5ff1c40d9ea20921af02b16a376d254949060200160405180910390a250505050565b610fc3338261206b565b610fdf5760405162461bcd60e51b8152600401610894906133f2565b610c9b8383836120ea565b610ff261224e565b336000908152600d6020526040902054806110465760405162461bcd60e51b81526020600482015260146024820152734e6f2066756e647320746f20776974686472617760601b6044820152606401610894565b336000818152600d60205260408082208290555190919083908381818185875af1925050503d8060008114611097576040519150601f19603f3d011682016040523d82523d6000602084013e61109c565b606091505b50509050806110df5760405162461bcd60e51b815260206004820152600f60248201526e151c985b9cd9995c8819985a5b1959608a1b6044820152606401610894565b60405182815233907feaff4b37086828766ad3268786972c0cd24259d4c87a80f9d3963a3c3d999b0d9060200160405180910390a250506111206001600855565b565b6000818152600c602052604090203361113a83611768565b6001600160a01b0316146111605760405162461bcd60e51b815260040161089490613347565b600181015460ff16156111855760405162461bcd60e51b81526004016108949061336a565b80546000908152600b6020526040902060050154600160a01b900460ff16156111c05760405162461bcd60e51b815260040161089490613390565b6001818101805460ff1916909117905560405182907f1f5d53e38fbc5a40092861e993062e74fb6dc7acef58356c7b55aa1afd8b350190600090a25050565b60008281526007602052604090206001015461121a81611f94565b610c9b83836122a7565b61122f600033611ba1565b61124b5760405162461bcd60e51b815260040161089490613347565b61126360008051602061361583398151915282611f06565b50565b6001600160a01b03811633146112d65760405162461bcd60e51b815260206004820152602f60248201527f416363657373436f6e74726f6c3a2063616e206f6e6c792072656e6f756e636560448201526e103937b632b9903337b91039b2b63360891b6064820152608401610894565b6112e0828261232d565b5050565b6000818152600b6020526040902060058101546001600160a01b0316331480611320575061132060008051602061363583398151915233611ba1565b61135d5760405162461bcd60e51b815260206004820152600e60248201526d139bdd08185d5d1a1bdc9a5cd95960921b6044820152606401610894565b6005810154600160a01b900460ff16156113ad5760405162461bcd60e51b8152602060048201526011602482015270105b1c9958591e4818d85b98d95b1b1959607a1b6044820152606401610894565b60058101805460ff60a01b1916600160a01b17905560405182907fdc3cb569b066460f4a22dffa05317bdcce5d3826382ed49a21f13e5fa2063d3990600090a25050565b610c9b83838360405180602001604052806000815250611e84565b60008051602061363583398151915261142481611f94565b6000828152600c60205260409020600181015460ff161561147d5760405162461bcd60e51b8152602060048201526013602482015272151a58dad95d08185b1c9958591e481d5cd959606a1b6044820152606401610894565b80546000908152600b6020526040902060050154600160a01b900460ff16156114b85760405162461bcd60e51b815260040161089490613390565b6001818101805460ff1916909117905560405183907f829ef827f41b6b12f6c4b681818ed694f9ce5f2f807226453718d690c917f08890600090a2505050565b611503600033611ba1565b61151f5760405162461bcd60e51b815260040161089490613347565b611263600080516020613615833981519152826111ff565b61153f61224e565b6000818152600c602052604090203361155783611768565b6001600160a01b03161461157d5760405162461bcd60e51b815260040161089490613347565b600181015460ff16156115c85760405162461bcd60e51b8152602060048201526013602482015272151a58dad95d08185b1c9958591e481d5cd959606a1b6044820152606401610894565b80546000908152600b602052604090206005810154600160a01b900460ff166116295760405162461bcd60e51b8152602060048201526013602482015272115d995b9d081b9bdd0818d85b98d95b1b1959606a1b6044820152606401610894565b600180820154838201805460ff191690921790915560058201546001600160a01b03166000908152600d602052604090205481116116935760058201546001600160a01b03166000908152600d60205260408120805483929061168d908490613334565b90915550505b61169c84612394565b604051600090339083908381818185875af1925050503d80600081146116de576040519150601f19603f3d011682016040523d82523d6000602084013e6116e3565b606091505b50509050806117245760405162461bcd60e51b815260206004820152600d60248201526c1499599d5b990819985a5b1959609a1b6044820152606401610894565b60405182815233907fa171b6942063c6f2800ce40a780edce37baa2b618571b11eedd1e69e626e7d76906020015b60405180910390a2505050506112636001600855565b6000818152600260205260408120546001600160a01b0316806108295760405162461bcd60e51b8152602060048201526018602482015277115490cdcc8c4e881a5b9d985b1a59081d1bdad95b88125160421b6044820152606401610894565b6000828152600c60205260409020336117e084611768565b6001600160a01b0316146118065760405162461bcd60e51b815260040161089490613347565b600181015460ff161561182b5760405162461bcd60e51b81526004016108949061336a565b6001600160a01b0382166118755760405162461bcd60e51b8152602060048201526011602482015270125b9d985b1a59081c9958da5c1a595b9d607a1b6044820152606401610894565b600060028201556118873383856120ea565b604080513381526001600160a01b038416602082015284917fd15524263ae66f75c1e604c47db6085085110f23ef7322b355179ac5e3b0783a910160405180910390a2505050565b6118d761224e565b6000818152600b60205260409020600281015461192d5760405162461bcd60e51b8152602060048201526014602482015273115d995b9d08191bd95cc81b9bdd08195e1a5cdd60621b6044820152606401610894565b6005810154600160a01b900460ff16156119595760405162461bcd60e51b815260040161089490613390565b806004015442106119a45760405162461bcd60e51b8152602060048201526015602482015274115d995b9d08185b1c9958591e481cdd185c9d1959605a1b6044820152606401610894565b806001015434146119e55760405162461bcd60e51b815260206004820152600b60248201526a57726f6e6720707269636560a81b6044820152606401610894565b8060020154816003015410611a275760405162461bcd60e51b815260206004820152600860248201526714dbdb19081bdd5d60c21b6044820152606401610894565b600a546040805160608101825284815260006020808301828152838501838152868452600c9092529390912091518255915160018201805460ff19169115159190911790559051600290910155611a7e338261239d565b600182015460058301546001600160a01b03166000908152600d602052604081208054909190611aaf90849061343f565b90915550506040513390849083907f94c5953e15f54d38b82a662bdd5739fc91af3a23d3ef7e67269dfaeee71a813c90600090a4600382018054906000611af58361331b565b9091555050600a8054906000611b0a8361331b565b919050555050506112636001600855565b60006001600160a01b038216611b855760405162461bcd60e51b815260206004820152602960248201527f4552433732313a2061646472657373207a65726f206973206e6f7420612076616044820152683634b21037bbb732b960b91b6064820152608401610894565b506001600160a01b031660009081526003602052604090205490565b60009182526007602090815260408084206001600160a01b0393909316845291905290205460ff1690565b606060018054610ae190613185565b611be6600033611ba1565b611c025760405162461bcd60e51b815260040161089490613347565b61126360008051602061363583398151915282611f06565b6112e0338383612528565b611c2d61224e565b6000818152600c602052604090206002810154611c795760405162461bcd60e51b815260206004820152600a602482015269139bdd081b1a5cdd195960b21b6044820152606401610894565b600181015460ff1615611c9e5760405162461bcd60e51b81526004016108949061336a565b80546000908152600b602052604090206005810154600160a01b900460ff16158015611ccd5750806004015442105b611d075760405162461bcd60e51b815260206004820152600b60248201526a556e617661696c61626c6560a81b6044820152606401610894565b81600201543414611d485760405162461bcd60e51b815260206004820152600b60248201526a57726f6e6720707269636560a81b6044820152606401610894565b6000611d5384611768565b9050336001600160a01b03821603611da55760405162461bcd60e51b815260206004820152601560248201527410d85b9b9bdd08189d5e481bdddb881d1a58dad95d605a1b6044820152606401610894565b60006064611db43460026133b9565b611dbe91906133d0565b600060028601559050611dd28233876120ea565b611ddc8134613334565b6001600160a01b0383166000908152600d602052604081208054909190611e0490849061343f565b909155505060058301546001600160a01b03166000908152600d602052604081208054839290611e3590849061343f565b9091555050604080516001600160a01b0384168152336020820152349181019190915285907f76abeecc375b76de38bdf4eb51e1a35105d99ca3fc7593281e0a36d0f9f8f6ad90606001611752565b611e8e338361206b565b611eaa5760405162461bcd60e51b8152600401610894906133f2565b611eb6848484846125f6565b50505050565b611ec7600033611ba1565b611ee35760405162461bcd60e51b815260040161089490613347565b611263600080516020613635833981519152826111ff565b606061082982612629565b600082815260076020526040902060010154611f2181611f94565b610c9b838361232d565b33611f3582611768565b6001600160a01b031614611f5b5760405162461bcd60e51b815260040161089490613347565b6000908152600c6020526040812060020155565b60006001600160e01b03198216637965db0b60e01b1480610829575061082982612731565b6112638133612756565b6000818152600260205260409020546001600160a01b03166112635760405162461bcd60e51b8152602060048201526018602482015277115490cdcc8c4e881a5b9d985b1a59081d1bdad95b88125160421b6044820152606401610894565b600081815260046020526040902080546001600160a01b0319166001600160a01b038416908117909155819061203282611768565b6001600160a01b03167f8c5be1e5ebec7d5bd14f71427d1e84f3dd0314c0f7b2291e5b200ac8c7c3b92560405160405180910390a45050565b60008061207783611768565b9050806001600160a01b0316846001600160a01b031614806120be57506001600160a01b0380821660009081526005602090815260408083209388168352929052205460ff165b806120e25750836001600160a01b03166120d784610b64565b6001600160a01b0316145b949350505050565b826001600160a01b03166120fd82611768565b6001600160a01b0316146121235760405162461bcd60e51b815260040161089490613452565b6001600160a01b0382166121855760405162461bcd60e51b8152602060048201526024808201527f4552433732313a207472616e7366657220746f20746865207a65726f206164646044820152637265737360e01b6064820152608401610894565b826001600160a01b031661219882611768565b6001600160a01b0316146121be5760405162461bcd60e51b815260040161089490613452565b600081815260046020908152604080832080546001600160a01b03199081169091556001600160a01b0387811680865260038552838620805460001901905590871680865283862080546001019055868652600290945282852080549092168417909155905184937fddf252ad1be2c89b69c2b068fc378daa952ba7f163c4a11628f55a4df523b3ef91a4505050565b6002600854036122a05760405162461bcd60e51b815260206004820152601f60248201527f5265656e7472616e637947756172643a207265656e7472616e742063616c6c006044820152606401610894565b6002600855565b6122b18282611ba1565b6112e05760008281526007602090815260408083206001600160a01b03851684529091529020805460ff191660011790556122e93390565b6001600160a01b0316816001600160a01b0316837f2f8788117e7eff1d82e926ec794901d17c78024a50270940304540a733656f0d60405160405180910390a45050565b6123378282611ba1565b156112e05760008281526007602090815260408083206001600160a01b0385168085529252808320805460ff1916905551339285917ff6391f5c32d9c69d2a47ea670b442974b53935d1edc7fd64eb21e047a839171b9190a45050565b611263816127af565b6001600160a01b0382166123f35760405162461bcd60e51b815260206004820181905260248201527f4552433732313a206d696e7420746f20746865207a65726f20616464726573736044820152606401610894565b6000818152600260205260409020546001600160a01b0316156124585760405162461bcd60e51b815260206004820152601c60248201527f4552433732313a20746f6b656e20616c7265616479206d696e746564000000006044820152606401610894565b6000818152600260205260409020546001600160a01b0316156124bd5760405162461bcd60e51b815260206004820152601c60248201527f4552433732313a20746f6b656e20616c7265616479206d696e746564000000006044820152606401610894565b6001600160a01b038216600081815260036020908152604080832080546001019055848352600290915280822080546001600160a01b0319168417905551839291907fddf252ad1be2c89b69c2b068fc378daa952ba7f163c4a11628f55a4df523b3ef908290a45050565b816001600160a01b0316836001600160a01b0316036125895760405162461bcd60e51b815260206004820152601960248201527f4552433732313a20617070726f766520746f2063616c6c6572000000000000006044820152606401610894565b6001600160a01b03838116600081815260056020908152604080832094871680845294825291829020805460ff191686151590811790915591519182527f17307eab39ab6107e8899845ad3d59bd9653f200f220920489ca2b5937696c31910160405180910390a3505050565b6126018484846120ea565b61260d848484846127ef565b611eb65760405162461bcd60e51b815260040161089490613497565b606061263482611f9e565b6000828152600660205260408120805461264d90613185565b80601f016020809104026020016040519081016040528092919081815260200182805461267990613185565b80156126c65780601f1061269b576101008083540402835291602001916126c6565b820191906000526020600020905b8154815290600101906020018083116126a957829003601f168201915b5050505050905060006126e460408051602081019091526000815290565b905080516000036126f6575092915050565b8151156127285780826040516020016127109291906134e9565b60405160208183030381529060405292505050919050565b6120e2846128f0565b60006001600160e01b03198216632483248360e11b1480610829575061082982612964565b6127608282611ba1565b6112e05761276d816129b4565b6127788360206129c6565b604051602001612789929190613518565b60408051601f198184030181529082905262461bcd60e51b825261089491600401612f27565b6127b881612b62565b600081815260066020526040902080546127d190613185565b15905061126357600081815260066020526040812061126391612d62565b60006001600160a01b0384163b156128e557604051630a85bd0160e11b81526001600160a01b0385169063150b7a029061283390339089908890889060040161358d565b6020604051808303816000875af192505050801561286e575060408051601f3d908101601f1916820190925261286b918101906135ca565b60015b6128cb573d80801561289c576040519150601f19603f3d011682016040523d82523d6000602084013e6128a1565b606091505b5080516000036128c35760405162461bcd60e51b815260040161089490613497565b805181602001fd5b6001600160e01b031916630a85bd0160e11b1490506120e2565b506001949350505050565b60606128fb82611f9e565b600061291260408051602081019091526000815290565b90506000815111612932576040518060200160405280600081525061295d565b8061293c84612bf7565b60405160200161294d9291906134e9565b6040516020818303038152906040525b9392505050565b60006001600160e01b031982166380ac58cd60e01b148061299557506001600160e01b03198216635b5e139f60e01b145b8061082957506301ffc9a760e01b6001600160e01b0319831614610829565b60606108296001600160a01b03831660145b606060006129d58360026133b9565b6129e090600261343f565b67ffffffffffffffff8111156129f8576129f8612de3565b6040519080825280601f01601f191660200182016040528015612a22576020820181803683370190505b509050600360fc1b81600081518110612a3d57612a3d6135e7565b60200101906001600160f81b031916908160001a905350600f60fb1b81600181518110612a6c57612a6c6135e7565b60200101906001600160f81b031916908160001a9053506000612a908460026133b9565b612a9b90600161343f565b90505b6001811115612b13576f181899199a1a9b1b9c1cb0b131b232b360811b85600f1660108110612acf57612acf6135e7565b1a60f81b828281518110612ae557612ae56135e7565b60200101906001600160f81b031916908160001a90535060049490941c93612b0c816135fd565b9050612a9e565b50831561295d5760405162461bcd60e51b815260206004820181905260248201527f537472696e67733a20686578206c656e67746820696e73756666696369656e746044820152606401610894565b6000612b6d82611768565b9050612b7882611768565b600083815260046020908152604080832080546001600160a01b03199081169091556001600160a01b0385168085526003845282852080546000190190558785526002909352818420805490911690555192935084927fddf252ad1be2c89b69c2b068fc378daa952ba7f163c4a11628f55a4df523b3ef908390a45050565b60606000612c0483612c8a565b600101905060008167ffffffffffffffff811115612c2457612c24612de3565b6040519080825280601f01601f191660200182016040528015612c4e576020820181803683370190505b5090508181016020015b600019016f181899199a1a9b1b9c1cb0b131b232b360811b600a86061a8153600a8504945084612c5857509392505050565b60008072184f03e93ff9f4daa797ed6e38ed64bf6a1f0160401b8310612cc95772184f03e93ff9f4daa797ed6e38ed64bf6a1f0160401b830492506040015b6d04ee2d6d415b85acef81000000008310612cf5576d04ee2d6d415b85acef8100000000830492506020015b662386f26fc100008310612d1357662386f26fc10000830492506010015b6305f5e1008310612d2b576305f5e100830492506008015b6127108310612d3f57612710830492506004015b60648310612d51576064830492506002015b600a83106108295760010192915050565b508054612d6e90613185565b6000825580601f10612d7e575050565b601f01602090049060005260206000209081019061126391905b80821115612dac5760008155600101612d98565b5090565b6001600160e01b03198116811461126357600080fd5b600060208284031215612dd857600080fd5b813561295d81612db0565b634e487b7160e01b600052604160045260246000fd5b600067ffffffffffffffff80841115612e1457612e14612de3565b604051601f8501601f19908116603f01168101908282118183101715612e3c57612e3c612de3565b81604052809350858152868686011115612e5557600080fd5b858560208301376000602087830101525050509392505050565b60008060008060808587031215612e8557600080fd5b843567ffffffffffffffff811115612e9c57600080fd5b8501601f81018713612ead57600080fd5b612ebc87823560208401612df9565b97602087013597506040870135966060013595509350505050565b60005b83811015612ef2578181015183820152602001612eda565b50506000910152565b60008151808452612f13816020860160208601612ed7565b601f01601f19169290920160200192915050565b60208152600061295d6020830184612efb565b600060208284031215612f4c57600080fd5b5035919050565b80356001600160a01b0381168114612f6a57600080fd5b919050565b60008060408385031215612f8257600080fd5b612f8b83612f53565b946020939093013593505050565b6000610100808352612fad8184018c612efb565b905089602084015288604084015287606084015286608084015260018060a01b03861660a084015284151560c084015282810360e0840152612fef8185612efb565b9b9a5050505050505050505050565b6000806040838503121561301157600080fd5b50508035926020909101359150565b60008060006060848603121561303557600080fd5b61303e84612f53565b925061304c60208501612f53565b9150604084013590509250925092565b6000806040838503121561306f57600080fd5b8235915061307f60208401612f53565b90509250929050565b60006020828403121561309a57600080fd5b61295d82612f53565b600080604083850312156130b657600080fd5b6130bf83612f53565b9150602083013580151581146130d457600080fd5b809150509250929050565b600080600080608085870312156130f557600080fd5b6130fe85612f53565b935061310c60208601612f53565b925060408501359150606085013567ffffffffffffffff81111561312f57600080fd5b8501601f8101871361314057600080fd5b61314f87823560208401612df9565b91505092959194509250565b6000806040838503121561316e57600080fd5b61317783612f53565b915061307f60208401612f53565b600181811c9082168061319957607f821691505b6020821081036131b957634e487b7160e01b600052602260045260246000fd5b50919050565b601f821115610c9b57600081815260208120601f850160051c810160208610156131e65750805b601f850160051c820191505b81811015613205578281556001016131f2565b505050505050565b815167ffffffffffffffff81111561322757613227612de3565b61323b816132358454613185565b846131bf565b602080601f83116001811461327057600084156132585750858301515b600019600386901b1c1916600185901b178555613205565b600085815260208120601f198616915b8281101561329f57888601518255948401946001909101908401613280565b50858210156132bd5787850151600019600388901b60f8161c191681555b5050505050600190811b01905550565b6080815260006132e06080830187612efb565b60208301959095525060408101929092526001600160a01b0316606090910152919050565b634e487b7160e01b600052601160045260246000fd5b60006001820161332d5761332d613305565b5060010190565b8181038181111561082957610829613305565b6020808252600990820152682737ba1037bbb732b960b91b604082015260600190565b6020808252600c908201526b105b1c9958591e481d5cd95960a21b604082015260600190565b6020808252600f908201526e115d995b9d0818d85b98d95b1b1959608a1b604082015260600190565b808202811582820484141761082957610829613305565b6000826133ed57634e487b7160e01b600052601260045260246000fd5b500490565b6020808252602d908201527f4552433732313a2063616c6c6572206973206e6f7420746f6b656e206f776e6560408201526c1c881bdc88185c1c1c9bdd9959609a1b606082015260800190565b8082018082111561082957610829613305565b60208082526025908201527f4552433732313a207472616e736665722066726f6d20696e636f72726563742060408201526437bbb732b960d91b606082015260800190565b60208082526032908201527f4552433732313a207472616e7366657220746f206e6f6e20455243373231526560408201527131b2b4bb32b91034b6b83632b6b2b73a32b960711b606082015260800190565b600083516134fb818460208801612ed7565b83519083019061350f818360208801612ed7565b01949350505050565b7f416363657373436f6e74726f6c3a206163636f756e7420000000000000000000815260008351613550816017850160208801612ed7565b7001034b99036b4b9b9b4b733903937b6329607d1b6017918401918201528351613581816028840160208801612ed7565b01602801949350505050565b6001600160a01b03858116825284166020820152604081018390526080606082018190526000906135c090830184612efb565b9695505050505050565b6000602082840312156135dc57600080fd5b815161295d81612db0565b634e487b7160e01b600052603260045260246000fd5b60008161360c5761360c613305565b50600019019056fe4d2e7a1e3f5dd6e203f087b15756ccf0e4ccd947fe1b639a38540089a1e47f63a49807205ce4d355092ef5a8a18f56e8913cf4a201fbe287825b095693c21775a264697066735822122034a9a52106378263506092a5bef0d14c422e15eb6a1960e9fa69f6839246ac2564736f6c63430008130033",
  "linkReferences": {},
  "deployedLinkReferences": {}
}